:0A0352003F065B4F666D7D077F6F6D
:10033C00010B14010A01011000010900010F140145
:05034C000C1401080A79
:10030300E4FDFCC3ED9FEC9E5015E4FBFA0BBB0030
:0F031300010AEB64784A70F50DBD00010C80E41F
:0103220022B8
:03000B0002000EE2
:10000E00C0E0C0F0C0D075D000C000C004C005C0B4
:10001E0006C007758C3C758AAF050EE50E7002059D
:10002E000DE50B75F014A4B50E22E5F0B50D1D759A
:10003E000D00750E00751000750900850C0B850BF3
:10004E000F630A01E50B24F6F508801AAE0DAF0E0C
:10005E007C007D141202AEED4C700B150FE508D32B
:10006E00940040021508E50B75F014A424C4FFE5B6
:10007E00F034FFFEEF650E7003EE650D6018E50BB4
:10008E00C31375F014A424C4FFE5F034FFFEEFB5DE
:10009E000E07EEB50D03751001E50BC31375F014C5
:1000AE00A4B50E0BE5F0B50D06750901751000D05F
:1000BE0007D006D005D004D000D0D0D0F0D0E0329A
:10032300E4F580F590F5A0F5B0758901758C3D7500
:090333008AB0D2A9D2AFD28C220B
:0301DB00120254B9
:1001DE00D2B2D2B6D2B3D2B4A2B6E433F9A2B3E459
:1001EE0033F511A2B4E433F5127F147E001203032B
:1001FE00E97022C2A9D2AF7F147E00120303D2B2DD
:10020E00D2B6D2A7A2B6E433F9120303E9640160B1
:10021E00E6C2A7D2A9E51170147F14FE12030305DE
:10022E000C751101D2A77FC8120303C2A7E5127085
:10023E00147F14FE120303150C751201D2A77FC88A
:05024E00120303C2A72A
:010253002288
:10025400E50F75F00A8490035293F58075A0057F2D
:10026400057E00120303E4F5A0E50F75F00A84E5AA
:10027400F093F58075A00A7F05120303E4F5A0E569
:100284000875F00A8493F58075A0207F0512030396
:10029400E4F5A0E50875F00A84E5F093F58075A00F
:0A02A400107F05120303E4F5A02209
:10015A00120323E50F90035293F580D2A3F580E5AD
:10016A000A6401701DE5107019E50970087590821E
:10017A0075B081802CE509B4010675908975B08047
:10018A00801FE50A701EE510701AE509700875905F
:10019A002875B002800BE509B40106759098E4F55C
:1001AA00B01201DBE50AB40110E510B4010B75B019
:1001BA00817590841201DB80A6E50A70A2E51064BD
:1001CA0001709C75B0027590481202541201DE80CB
:0101DA008E96
:030000000200CE2D
:0C00CE00787FE4F6D8FD75811202011560
:1002AE00BC000BBE0029EF8DF084FFADF022E4CC34
:1002BE00F875F008EF2FFFEE33FEEC33FCEE9DECFD
:1002CE00984005FCEE9DFE0FD5F0E9E4CEFD22ED43
:1002DE00F8F5F0EE8420D21CFEADF075F008EF2F8D
:1002EE00FFED33FD4007985006D5F0F222C398FD7E
:0502FE000FD5F0EA221B
:1000DA0002015AE493A3F8E493A34003F68001F2E1
:1000EA0008DFF48029E493A3F85407240CC8C33327
:1000FA00C4540F4420C8834004F456800146F6DFF6
:10010A00E4800B010204081020408090033CE47E46
:10011A00019360BCA3FF543F30E509541FFEE493EA
:10012A00A360010ECF54C025E060A840B8E493A3B1
:10013A00FAE493A3F8E493A3C8C582C8CAC583CADC
:10014A00F0A3C8C582C8CAC583CADFE9DEE780BE94
:0103510000AB
:00000001FF
